{
  "_format": "hh-sol-artifact-1",
  "contractName": "NFTTransferAuction",
  "sourceName": "contracts/NFTTransferAuction.sol",
  "abi": [
    {
      "inputs": [
        {
          "internalType": "string",
          "name": "name",
          "type": "string"
        },
        {
          "internalType": "string",
          "name": "symbol",
          "type": "string"
        },
        {
          "internalType": "uint256",
          "name": "startingPrice_",
          "type": "uint256"
        },
        {
          "internalType": "uint256",
          "name": "duration",
          "type": "uint256"
        }
      ],
      "stateMutability": "nonpayable",
      "type": "constructor"
    },
    {
      "inputs": [
        {
          "internalType": "address",
          "name": "sender",
          "type": "address"
        },
        {
          "internalType": "uint256",
          "name": "tokenId",
          "type": "uint256"
        },
        {
          "internalType": "address",
          "name": "owner",
          "type": "address"
        }
      ],
      "name": "ERC721IncorrectOwner",
      "type": "error"
    },
    {
      "inputs": [
        {
          "internalType": "address",
          "name": "operator",
          "type": "address"
        },
        {
          "internalType": "uint256",
          "name": "tokenId",
          "type": "uint256"
        }
      ],
      "name": "ERC721InsufficientApproval",
      "type": "error"
    },
    {
      "inputs": [
        {
          "internalType": "address",
          "name": "approver",
          "type": "address"
        }
      ],
      "name": "ERC721InvalidApprover",
      "type": "error"
    },
    {
      "inputs": [
        {
          "internalType": "address",
          "name": "operator",
          "type": "address"
        }
      ],
      "name": "ERC721InvalidOperator",
      "type": "error"
    },
    {
      "inputs": [
        {
          "internalType": "address",
          "name": "owner",
          "type": "address"
        }
      ],
      "name": "ERC721InvalidOwner",
      "type": "error"
    },
    {
      "inputs": [
        {
          "internalType": "address",
          "name": "receiver",
          "type": "address"
        }
      ],
      "name": "ERC721InvalidReceiver",
      "type": "error"
    },
    {
      "inputs": [
        {
          "internalType": "address",
          "name": "sender",
          "type": "address"
        }
      ],
      "name": "ERC721InvalidSender",
      "type": "error"
    },
    {
      "inputs": [
        {
          "internalType": "uint256",
          "name": "tokenId",
          "type": "uint256"
        }
      ],
      "name": "ERC721NonexistentToken",
      "type": "error"
    },
    {
      "anonymous": false,
      "inputs": [
        {
          "indexed": true,
          "internalType": "address",
          "name": "owner",
          "type": "address"
        },
        {
          "indexed": true,
          "internalType": "address",
          "name": "approved",
          "type": "address"
        },
        {
          "indexed": true,
          "internalType": "uint256",
          "name": "tokenId",
          "type": "uint256"
        }
      ],
      "name": "Approval",
      "type": "event"
    },
    {
      "anonymous": false,
      "inputs": [
        {
          "indexed": true,
          "internalType": "address",
          "name": "owner",
          "type": "address"
        },
        {
          "indexed": true,
          "internalType": "address",
          "name": "operator",
          "type": "address"
        },
        {
          "indexed": false,
          "internalType": "bool",
          "name": "approved",
          "type": "bool"
        }
      ],
      "name": "ApprovalForAll",
      "type": "event"
    },
    {
      "anonymous": false,
      "inputs": [
        {
          "indexed": true,
          "internalType": "address",
          "name": "from",
          "type": "address"
        },
        {
          "indexed": true,
          "internalType": "address",
          "name": "to",
          "type": "address"
        },
        {
          "indexed": true,
          "internalType": "uint256",
          "name": "tokenId",
          "type": "uint256"
        }
      ],
      "name": "Transfer",
      "type": "event"
    },
    {
      "inputs": [
        {
          "internalType": "address",
          "name": "to",
          "type": "address"
        },
        {
          "internalType": "uint256",
          "name": "tokenId",
          "type": "uint256"
        }
      ],
      "name": "approve",
      "outputs": [],
      "stateMutability": "nonpayable",
      "type": "function"
    },
    {
      "inputs": [],
      "name": "auctioneer",
      "outputs": [
        {
          "internalType": "address payable",
          "name": "",
          "type": "address"
        }
      ],
      "stateMutability": "view",
      "type": "function"
    },
    {
      "inputs": [
        {
          "internalType": "address",
          "name": "owner",
          "type": "address"
        }
      ],
      "name": "balanceOf",
      "outputs": [
        {
          "internalType": "uint256",
          "name": "",
          "type": "uint256"
        }
      ],
      "stateMutability": "view",
      "type": "function"
    },
    {
      "inputs": [],
      "name": "endingTime",
      "outputs": [
        {
          "internalType": "uint256",
          "name": "",
          "type": "uint256"
        }
      ],
      "stateMutability": "view",
      "type": "function"
    },
    {
      "inputs": [],
      "name": "finalizeAuction",
      "outputs": [],
      "stateMutability": "nonpayable",
      "type": "function"
    },
    {
      "inputs": [
        {
          "internalType": "uint256",
          "name": "tokenId",
          "type": "uint256"
        }
      ],
      "name": "getApproved",
      "outputs": [
        {
          "internalType": "address",
          "name": "",
          "type": "address"
        }
      ],
      "stateMutability": "view",
      "type": "function"
    },
    {
      "inputs": [],
      "name": "highestBid",
      "outputs": [
        {
          "internalType": "uint256",
          "name": "",
          "type": "uint256"
        }
      ],
      "stateMutability": "view",
      "type": "function"
    },
    {
      "inputs": [],
      "name": "highestBidder",
      "outputs": [
        {
          "internalType": "address",
          "name": "",
          "type": "address"
        }
      ],
      "stateMutability": "view",
      "type": "function"
    },
    {
      "inputs": [
        {
          "internalType": "address",
          "name": "owner",
          "type": "address"
        },
        {
          "internalType": "address",
          "name": "operator",
          "type": "address"
        }
      ],
      "name": "isApprovedForAll",
      "outputs": [
        {
          "internalType": "bool",
          "name": "",
          "type": "bool"
        }
      ],
      "stateMutability": "view",
      "type": "function"
    },
    {
      "inputs": [],
      "name": "name",
      "outputs": [
        {
          "internalType": "string",
          "name": "",
          "type": "string"
        }
      ],
      "stateMutability": "view",
      "type": "function"
    },
    {
      "inputs": [
        {
          "internalType": "uint256",
          "name": "tokenId",
          "type": "uint256"
        }
      ],
      "name": "ownerOf",
      "outputs": [
        {
          "internalType": "address",
          "name": "",
          "type": "address"
        }
      ],
      "stateMutability": "view",
      "type": "function"
    },
    {
      "inputs": [],
      "name": "placeBid",
      "outputs": [],
      "stateMutability": "payable",
      "type": "function"
    },
    {
      "inputs": [
        {
          "internalType": "address",
          "name": "from",
          "type": "address"
        },
        {
          "internalType": "address",
          "name": "to",
          "type": "address"
        },
        {
          "internalType": "uint256",
          "name": "tokenId",
          "type": "uint256"
        }
      ],
      "name": "safeTransferFrom",
      "outputs": [],
      "stateMutability": "nonpayable",
      "type": "function"
    },
    {
      "inputs": [
        {
          "internalType": "address",
          "name": "from",
          "type": "address"
        },
        {
          "internalType": "address",
          "name": "to",
          "type": "address"
        },
        {
          "internalType": "uint256",
          "name": "tokenId",
          "type": "uint256"
        },
        {
          "internalType": "bytes",
          "name": "data",
          "type": "bytes"
        }
      ],
      "name": "safeTransferFrom",
      "outputs": [],
      "stateMutability": "nonpayable",
      "type": "function"
    },
    {
      "inputs": [
        {
          "internalType": "address",
          "name": "operator",
          "type": "address"
        },
        {
          "internalType": "bool",
          "name": "approved",
          "type": "bool"
        }
      ],
      "name": "setApprovalForAll",
      "outputs": [],
      "stateMutability": "nonpayable",
      "type": "function"
    },
    {
      "inputs": [],
      "name": "startingPrice",
      "outputs": [
        {
          "internalType": "uint256",
          "name": "",
          "type": "uint256"
        }
      ],
      "stateMutability": "view",
      "type": "function"
    },
    {
      "inputs": [
        {
          "internalType": "bytes4",
          "name": "interfaceId",
          "type": "bytes4"
        }
      ],
      "name": "supportsInterface",
      "outputs": [
        {
          "internalType": "bool",
          "name": "",
          "type": "bool"
        }
      ],
      "stateMutability": "view",
      "type": "function"
    },
    {
      "inputs": [],
      "name": "symbol",
      "outputs": [
        {
          "internalType": "string",
          "name": "",
          "type": "string"
        }
      ],
      "stateMutability": "view",
      "type": "function"
    },
    {
      "inputs": [
        {
          "internalType": "uint256",
          "name": "tokenId",
          "type": "uint256"
        }
      ],
      "name": "tokenURI",
      "outputs": [
        {
          "internalType": "string",
          "name": "",
          "type": "string"
        }
      ],
      "stateMutability": "view",
      "type": "function"
    },
    {
      "inputs": [
        {
          "internalType": "address",
          "name": "from",
          "type": "address"
        },
        {
          "internalType": "address",
          "name": "to",
          "type": "address"
        },
        {
          "internalType": "uint256",
          "name": "tokenId",
          "type": "uint256"
        }
      ],
      "name": "transferFrom",
      "outputs": [],
      "stateMutability": "nonpayable",
      "type": "function"
    }
  ],
  "bytecode": "0x60806040523480156200001157600080fd5b5060405162002c1138038062002c1183398181016040528101906200003791906200029b565b838381600090816200004a91906200058c565b5080600190816200005c91906200058c565b50505033600760006101000a81548173ffffffffffffffffffffffffffffffffffffffff021916908373ffffffffffffffffffffffffffffffffffffffff160217905550816008819055508042620000b59190620006a2565b600981905550600a60068190555050505050620006dd565b6000604051905090565b600080fd5b600080fd5b600080fd5b600080fd5b6000601f19601f8301169050919050565b7f4e487b7100000000000000000000000000000000000000000000000000000000600052604160045260246000fd5b6200013682620000eb565b810181811067ffffffffffffffff82111715620001585762000157620000fc565b5b80604052505050565b60006200016d620000cd565b90506200017b82826200012b565b919050565b600067ffffffffffffffff8211156200019e576200019d620000fc565b5b620001a982620000eb565b9050602081019050919050565b60005b83811015620001d6578082015181840152602081019050620001b9565b60008484015250505050565b6000620001f9620001f38462000180565b62000161565b905082815260208101848484011115620002185762000217620000e6565b5b62000225848285620001b6565b509392505050565b600082601f830112620002455762000244620000e1565b5b815162000257848260208601620001e2565b91505092915050565b6000819050919050565b620002758162000260565b81146200028157600080fd5b50565b60008151905062000295816200026a565b92915050565b60008060008060808587031215620002b857620002b7620000d7565b5b600085015167ffffffffffffffff811115620002d957620002d8620000dc565b5b620002e7878288016200022d565b945050602085015167ffffffffffffffff8111156200030b576200030a620000dc565b5b62000319878288016200022d565b93505060406200032c8782880162000284565b92505060606200033f8782880162000284565b91505092959194509250565b600081519050919050565b7f4e487b7100000000000000000000000000000000000000000000000000000000600052602260045260246000fd5b600060028204905060018216806200039e57607f821691505b602082108103620003b457620003b362000356565b5b50919050565b60008190508160005260206000209050919050565b60006020601f8301049050919050565b600082821b905092915050565b6000600883026200041e7fffffffffffffffffffffffffffffffffffffffffffffffffffffffffffffffff82620003df565b6200042a8683620003df565b95508019841693508086168417925050509392505050565b6000819050919050565b60006200046d62000467620004618462000260565b62000442565b62000260565b9050919050565b6000819050919050565b62000489836200044c565b620004a1620004988262000474565b848454620003ec565b825550505050565b600090565b620004b8620004a9565b620004c58184846200047e565b505050565b5b81811015620004ed57620004e1600082620004ae565b600181019050620004cb565b5050565b601f8211156200053c576200050681620003ba565b6200051184620003cf565b8101602085101562000521578190505b620005396200053085620003cf565b830182620004ca565b50505b505050565b600082821c905092915050565b6000620005616000198460080262000541565b1980831691505092915050565b60006200057c83836200054e565b9150826002028217905092915050565b62000597826200034b565b67ffffffffffffffff811115620005b357620005b2620000fc565b5b620005bf825462000385565b620005cc828285620004f1565b600060209050601f831160018114620006045760008415620005ef578287015190505b620005fb85826200056e565b8655506200066b565b601f1984166200061486620003ba565b60005b828110156200063e5784890151825560018201915060208501945060208101905062000617565b868310156200065e57848901516200065a601f8916826200054e565b8355505b6001600288020188555050505b505050505050565b7f4e487b7100000000000000000000000000000000000000000000000000000000600052601160045260246000fd5b6000620006af8262000260565b9150620006bc8362000260565b9250828201905080821115620006d757620006d662000673565b5b92915050565b61252480620006ed6000396000f3fe60806040526004361061011f5760003560e01c806391f90157116100a0578063d57bde7911610064578063d57bde79146103f9578063d6fbf20214610424578063e985e9c51461044f578063ecfc7ecc1461048c578063f77282ab146104965761011f565b806391f901571461031457806395d89b411461033f578063a22cb4651461036a578063b88d4fde14610393578063c87b56dd146103bc5761011f565b806342842e0e116100e757806342842e0e1461021b5780635ec2c7bf146102445780636352211e1461026f5780636c47a6c3146102ac57806370a08231146102d75761011f565b806301ffc9a71461012457806306fdde0314610161578063081812fc1461018c578063095ea7b3146101c957806323b872dd146101f2575b600080fd5b34801561013057600080fd5b5061014b60048036038101906101469190611b2b565b6104ad565b6040516101589190611b73565b60405180910390f35b34801561016d57600080fd5b5061017661058f565b6040516101839190611c1e565b60405180910390f35b34801561019857600080fd5b506101b360048036038101906101ae9190611c76565b610621565b6040516101c09190611ce4565b60405180910390f35b3480156101d557600080fd5b506101f060048036038101906101eb9190611d2b565b61063d565b005b3480156101fe57600080fd5b5061021960048036038101906102149190611d6b565b610653565b005b34801561022757600080fd5b50610242600480360381019061023d9190611d6b565b610755565b005b34801561025057600080fd5b50610259610775565b6040516102669190611ddf565b60405180910390f35b34801561027b57600080fd5b5061029660048036038101906102919190611c76565b61079b565b6040516102a39190611ce4565b60405180910390f35b3480156102b857600080fd5b506102c16107ad565b6040516102ce9190611e09565b60405180910390f35b3480156102e357600080fd5b506102fe60048036038101906102f99190611e24565b6107b3565b60405161030b9190611e09565b60405180910390f35b34801561032057600080fd5b5061032961086d565b6040516103369190611ce4565b60405180910390f35b34801561034b57600080fd5b50610354610893565b6040516103619190611c1e565b60405180910390f35b34801561037657600080fd5b50610391600480360381019061038c9190611e7d565b610925565b005b34801561039f57600080fd5b506103ba60048036038101906103b59190611ff2565b61093b565b005b3480156103c857600080fd5b506103e360048036038101906103de9190611c76565b610958565b6040516103f09190611c1e565b60405180910390f35b34801561040557600080fd5b5061040e6109c1565b60405161041b9190611e09565b60405180910390f35b34801561043057600080fd5b506104396109c7565b6040516104469190611e09565b60405180910390f35b34801561045b57600080fd5b5061047660048036038101906104719190612075565b6109cd565b6040516104839190611b73565b60405180910390f35b610494610a61565b005b3480156104a257600080fd5b506104ab610bf5565b005b60007f80ac58cd000000000000000000000000000000000000000000000000000000007bffffffffffffffffffffffffffffffffffffffffffffffffffffffff1916827bffffffffffffffffffffffffffffffffffffffffffffffffffffffff1916148061057857507f5b5e139f000000000000000000000000000000000000000000000000000000007bffffffffffffffffffffffffffffffffffffffffffffffffffffffff1916827bffffffffffffffffffffffffffffffffffffffffffffffffffffffff1916145b80610588575061058782610d44565b5b9050919050565b60606000805461059e906120e4565b80601f01602080910402602001604051908101604052809291908181526020018280546105ca906120e4565b80156106175780601f106105ec57610100808354040283529160200191610617565b820191906000526020600020905b8154815290600101906020018083116105fa57829003601f168201915b5050505050905090565b600061062c82610dae565b5061063682610e36565b9050919050565b61064f828261064a610e73565b610e7b565b5050565b600073ffffffffffffffffffffffffffffffffffffffff168273ffffffffffffffffffffffffffffffffffffffff16036106c55760006040517f64a0ae920000000000000000000000000000000000000000000000000000000081526004016106bc9190611ce4565b60405180910390fd5b60006106d983836106d4610e73565b610e8d565b90508373ffffffffffffffffffffffffffffffffffffffff168173ffffffffffffffffffffffffffffffffffffffff161461074f578382826040517f64283d7b00000000000000000000000000000000000000000000000000000000815260040161074693929190612115565b60405180910390fd5b50505050565b6107708383836040518060200160405280600081525061093b565b505050565b600760009054906101000a900473ffffffffffffffffffffffffffffffffffffffff1681565b60006107a682610dae565b9050919050565b60095481565b60008073ffffffffffffffffffffffffffffffffffffffff168273ffffffffffffffffffffffffffffffffffffffff16036108265760006040517f89c62b6400000000000000000000000000000000000000000000000000000000815260040161081d9190611ce4565b60405180910390fd5b600360008373ffffffffffffffffffffffffffffffffffffffff1673ffffffffffffffffffffffffffffffffffffffff168152602001908152602001600020549050919050565b600a60009054906101000a900473ffffffffffffffffffffffffffffffffffffffff1681565b6060600180546108a2906120e4565b80601f01602080910402602001604051908101604052809291908181526020018280546108ce906120e4565b801561091b5780601f106108f05761010080835404028352916020019161091b565b820191906000526020600020905b8154815290600101906020018083116108fe57829003601f168201915b5050505050905090565b610937610930610e73565b83836110a7565b5050565b610946848484610653565b61095284848484611216565b50505050565b606061096382610dae565b50600061096e6113cd565b9050600081511161098e57604051806020016040528060008152506109b9565b80610998846113e4565b6040516020016109a9929190612188565b6040516020818303038152906040525b915050919050565b600b5481565b60085481565b6000600560008473ffffffffffffffffffffffffffffffffffffffff1673ffffffffffffffffffffffffffffffffffffffff16815260200190815260200160002060008373ffffffffffffffffffffffffffffffffffffffff1673ffffffffffffffffffffffffffffffffffffffff16815260200190815260200160002060009054906101000a900460ff16905092915050565b6009544210610aa5576040517f08c379a0000000000000000000000000000000000000000000000000000000008152600401610a9c906121f8565b60405180910390fd5b600b543411610ae9576040517f08c379a0000000000000000000000000000000000000000000000000000000008152600401610ae09061228a565b60405180910390fd5b600073ffffffffffffffffffffffffffffffffffffffff16600a60009054906101000a900473ffffffffffffffffffffffffffffffffffffffff1673ffffffffffffffffffffffffffffffffffffffff1614610bab57600a60009054906101000a900473ffffffffffffffffffffffffffffffffffffffff1673ffffffffffffffffffffffffffffffffffffffff166108fc600b549081150290604051600060405180830381858888f19350505050158015610ba9573d6000803e3d6000fd5b505b33600a60006101000a81548173ffffffffffffffffffffffffffffffffffffffff021916908373ffffffffffffffffffffffffffffffffffffffff16021790555034600b81905550565b600760009054906101000a900473ffffffffffffffffffffffffffffffffffffffff1673ffffffffffffffffffffffffffffffffffffffff163373ffffffffffffffffffffffffffffffffffffffff161480610c52575060095442115b610c91576040517f08c379a0000000000000000000000000000000000000000000000000000000008152600401610c889061231c565b60405180910390fd5b610cbf600a60009054906101000a900473ffffffffffffffffffffffffffffffffffffffff166006546114b2565b60066000815480929190610cd29061236b565b9190505550600760009054906101000a900473ffffffffffffffffffffffffffffffffffffffff1673ffffffffffffffffffffffffffffffffffffffff166108fc600b549081150290604051600060405180830381858888f19350505050158015610d41573d6000803e3d6000fd5b50565b60007f01ffc9a7000000000000000000000000000000000000000000000000000000007bffffffffffffffffffffffffffffffffffffffffffffffffffffffff1916827bffffffffffffffffffffffffffffffffffffffffffffffffffffffff1916149050919050565b600080610dba836114d0565b9050600073ffffffffffffffffffffffffffffffffffffffff168173ffffffffffffffffffffffffffffffffffffffff1603610e2d57826040517f7e273289000000000000000000000000000000000000000000000000000000008152600401610e249190611e09565b60405180910390fd5b80915050919050565b60006004600083815260200190815260200160002060009054906101000a900473ffffffffffffffffffffffffffffffffffffffff169050919050565b600033905090565b610e88838383600161150d565b505050565b600080610e99846114d0565b9050600073ffffffffffffffffffffffffffffffffffffffff168373ffffffffffffffffffffffffffffffffffffffff1614610edb57610eda8184866116d2565b5b600073ffffffffffffffffffffffffffffffffffffffff168173ffffffffffffffffffffffffffffffffffffffff1614610f6c57610f1d60008560008061150d565b6001600360008373ffffffffffffffffffffffffffffffffffffffff1673ffffffffffffffffffffffffffffffffffffffff168152602001908152602001600020600082825403925050819055505b600073ffffffffffffffffffffffffffffffffffffffff168573ffffffffffffffffffffffffffffffffffffffff1614610fef576001600360008773ffffffffffffffffffffffffffffffffffffffff1673ffffffffffffffffffffffffffffffffffffffff168152602001908152602001600020600082825401925050819055505b846002600086815260200190815260200160002060006101000a81548173ffffffffffffffffffffffffffffffffffffffff021916908373ffffffffffffffffffffffffffffffffffffffff160217905550838573ffffffffffffffffffffffffffffffffffffffff168273ffffffffffffffffffffffffffffffffffffffff167fddf252ad1be2c89b69c2b068fc378daa952ba7f163c4a11628f55a4df523b3ef60405160405180910390a4809150509392505050565b600073ffffffffffffffffffffffffffffffffffffffff168273ffffffffffffffffffffffffffffffffffffffff160361111857816040517f5b08ba1800000000000000000000000000000000000000000000000000000000815260040161110f9190611ce4565b60405180910390fd5b80600560008573ffffffffffffffffffffffffffffffffffffffff1673ffffffffffffffffffffffffffffffffffffffff16815260200190815260200160002060008473ffffffffffffffffffffffffffffffffffffffff1673ffffffffffffffffffffffffffffffffffffffff16815260200190815260200160002060006101000a81548160ff0219169083151502179055508173ffffffffffffffffffffffffffffffffffffffff168373ffffffffffffffffffffffffffffffffffffffff167f17307eab39ab6107e8899845ad3d59bd9653f200f220920489ca2b5937696c31836040516112099190611b73565b60405180910390a3505050565b60008373ffffffffffffffffffffffffffffffffffffffff163b11156113c7578273ffffffffffffffffffffffffffffffffffffffff1663150b7a0261125a610e73565b8685856040518563ffffffff1660e01b815260040161127c9493929190612408565b6020604051808303816000875af19250505080156112b857506040513d601f19601f820116820180604052508101906112b59190612469565b60015b61133c573d80600081146112e8576040519150601f19603f3d011682016040523d82523d6000602084013e6112ed565b606091505b50600081510361133457836040517f64a0ae9200000000000000000000000000000000000000000000000000000000815260040161132b9190611ce4565b60405180910390fd5b805181602001fd5b63150b7a0260e01b7bffffffffffffffffffffffffffffffffffffffffffffffffffffffff1916817bffffffffffffffffffffffffffffffffffffffffffffffffffffffff1916146113c557836040517f64a0ae920000000000000000000000000000000000000000000000000000000081526004016113bc9190611ce4565b60405180910390fd5b505b50505050565b606060405180602001604052806000815250905090565b6060600060016113f384611796565b01905060008167ffffffffffffffff81111561141257611411611ec7565b5b6040519080825280601f01601f1916602001820160405280156114445781602001600182028036833780820191505090505b509050600082602001820190505b6001156114a7578080600190039150507f3031323334353637383961626364656600000000000000000000000000000000600a86061a8153600a858161149b5761149a612496565b5b04945060008503611452575b819350505050919050565b6114cc8282604051806020016040528060008152506118e9565b5050565b60006002600083815260200190815260200160002060009054906101000a900473ffffffffffffffffffffffffffffffffffffffff169050919050565b80806115465750600073ffffffffffffffffffffffffffffffffffffffff168273ffffffffffffffffffffffffffffffffffffffff1614155b1561167a57600061155684610dae565b9050600073ffffffffffffffffffffffffffffffffffffffff168373ffffffffffffffffffffffffffffffffffffffff16141580156115c157508273ffffffffffffffffffffffffffffffffffffffff168173ffffffffffffffffffffffffffffffffffffffff1614155b80156115d457506115d281846109cd565b155b1561161657826040517fa9fbf51f00000000000000000000000000000000000000000000000000000000815260040161160d9190611ce4565b60405180910390fd5b811561167857838573ffffffffffffffffffffffffffffffffffffffff168273ffffffffffffffffffffffffffffffffffffffff167f8c5be1e5ebec7d5bd14f71427d1e84f3dd0314c0f7b2291e5b200ac8c7c3b92560405160405180910390a45b505b836004600085815260200190815260200160002060006101000a81548173ffffffffffffffffffffffffffffffffffffffff021916908373ffffffffffffffffffffffffffffffffffffffff16021790555050505050565b6116dd838383611905565b61179157600073ffffffffffffffffffffffffffffffffffffffff168373ffffffffffffffffffffffffffffffffffffffff160361175257806040517f7e2732890000000000000000000000000000000000000000000000000000000081526004016117499190611e09565b60405180910390fd5b81816040517f177e802f0000000000000000000000000000000000000000000000000000000081526004016117889291906124c5565b60405180910390fd5b505050565b600080600090507a184f03e93ff9f4daa797ed6e38ed64bf6a1f01000000000000000083106117f4577a184f03e93ff9f4daa797ed6e38ed64bf6a1f01000000000000000083816117ea576117e9612496565b5b0492506040810190505b6d04ee2d6d415b85acef81000000008310611831576d04ee2d6d415b85acef8100000000838161182757611826612496565b5b0492506020810190505b662386f26fc10000831061186057662386f26fc10000838161185657611855612496565b5b0492506010810190505b6305f5e1008310611889576305f5e100838161187f5761187e612496565b5b0492506008810190505b61271083106118ae5761271083816118a4576118a3612496565b5b0492506004810190505b606483106118d157606483816118c7576118c6612496565b5b0492506002810190505b600a83106118e0576001810190505b80915050919050565b6118f383836119c6565b6119006000848484611216565b505050565b60008073ffffffffffffffffffffffffffffffffffffffff168373ffffffffffffffffffffffffffffffffffffffff16141580156119bd57508273ffffffffffffffffffffffffffffffffffffffff168473ffffffffffffffffffffffffffffffffffffffff16148061197e575061197d84846109cd565b5b806119bc57508273ffffffffffffffffffffffffffffffffffffffff166119a483610e36565b73ffffffffffffffffffffffffffffffffffffffff16145b5b90509392505050565b600073ffffffffffffffffffffffffffffffffffffffff168273ffffffffffffffffffffffffffffffffffffffff1603611a385760006040517f64a0ae92000000000000000000000000000000000000000000000000000000008152600401611a2f9190611ce4565b60405180910390fd5b6000611a4683836000610e8d565b9050600073ffffffffffffffffffffffffffffffffffffffff168173ffffffffffffffffffffffffffffffffffffffff1614611aba5760006040517f73c6ac6e000000000000000000000000000000000000000000000000000000008152600401611ab19190611ce4565b60405180910390fd5b505050565b6000604051905090565b600080fd5b600080fd5b60007fffffffff0000000000000000000000000000000000000000000000000000000082169050919050565b611b0881611ad3565b8114611b1357600080fd5b50565b600081359050611b2581611aff565b92915050565b600060208284031215611b4157611b40611ac9565b5b6000611b4f84828501611b16565b91505092915050565b60008115159050919050565b611b6d81611b58565b82525050565b6000602082019050611b886000830184611b64565b92915050565b600081519050919050565b600082825260208201905092915050565b60005b83811015611bc8578082015181840152602081019050611bad565b60008484015250505050565b6000601f19601f8301169050919050565b6000611bf082611b8e565b611bfa8185611b99565b9350611c0a818560208601611baa565b611c1381611bd4565b840191505092915050565b60006020820190508181036000830152611c388184611be5565b905092915050565b6000819050919050565b611c5381611c40565b8114611c5e57600080fd5b50565b600081359050611c7081611c4a565b92915050565b600060208284031215611c8c57611c8b611ac9565b5b6000611c9a84828501611c61565b91505092915050565b600073ffffffffffffffffffffffffffffffffffffffff82169050919050565b6000611cce82611ca3565b9050919050565b611cde81611cc3565b82525050565b6000602082019050611cf96000830184611cd5565b92915050565b611d0881611cc3565b8114611d1357600080fd5b50565b600081359050611d2581611cff565b92915050565b60008060408385031215611d4257611d41611ac9565b5b6000611d5085828601611d16565b9250506020611d6185828601611c61565b9150509250929050565b600080600060608486031215611d8457611d83611ac9565b5b6000611d9286828701611d16565b9350506020611da386828701611d16565b9250506040611db486828701611c61565b9150509250925092565b6000611dc982611ca3565b9050919050565b611dd981611dbe565b82525050565b6000602082019050611df46000830184611dd0565b92915050565b611e0381611c40565b82525050565b6000602082019050611e1e6000830184611dfa565b92915050565b600060208284031215611e3a57611e39611ac9565b5b6000611e4884828501611d16565b91505092915050565b611e5a81611b58565b8114611e6557600080fd5b50565b600081359050611e7781611e51565b92915050565b60008060408385031215611e9457611e93611ac9565b5b6000611ea285828601611d16565b9250506020611eb385828601611e68565b9150509250929050565b600080fd5b600080fd5b7f4e487b7100000000000000000000000000000000000000000000000000000000600052604160045260246000fd5b611eff82611bd4565b810181811067ffffffffffffffff82111715611f1e57611f1d611ec7565b5b80604052505050565b6000611f31611abf565b9050611f3d8282611ef6565b919050565b600067ffffffffffffffff821115611f5d57611f5c611ec7565b5b611f6682611bd4565b9050602081019050919050565b82818337600083830152505050565b6000611f95611f9084611f42565b611f27565b905082815260208101848484011115611fb157611fb0611ec2565b5b611fbc848285611f73565b509392505050565b600082601f830112611fd957611fd8611ebd565b5b8135611fe9848260208601611f82565b91505092915050565b6000806000806080858703121561200c5761200b611ac9565b5b600061201a87828801611d16565b945050602061202b87828801611d16565b935050604061203c87828801611c61565b925050606085013567ffffffffffffffff81111561205d5761205c611ace565b5b61206987828801611fc4565b91505092959194509250565b6000806040838503121561208c5761208b611ac9565b5b600061209a85828601611d16565b92505060206120ab85828601611d16565b9150509250929050565b7f4e487b7100000000000000000000000000000000000000000000000000000000600052602260045260246000fd5b600060028204905060018216806120fc57607f821691505b60208210810361210f5761210e6120b5565b5b50919050565b600060608201905061212a6000830186611cd5565b6121376020830185611dfa565b6121446040830184611cd5565b949350505050565b600081905092915050565b600061216282611b8e565b61216c818561214c565b935061217c818560208601611baa565b80840191505092915050565b60006121948285612157565b91506121a08284612157565b91508190509392505050565b7f41756374696f6e2068617320656e646564000000000000000000000000000000600082015250565b60006121e2601183611b99565b91506121ed826121ac565b602082019050919050565b60006020820190508181036000830152612211816121d5565b9050919050565b7f426964206d75737420626520686967686572207468616e2063757272656e742060008201527f6869676865737420626964000000000000000000000000000000000000000000602082015250565b6000612274602b83611b99565b915061227f82612218565b604082019050919050565b600060208201905081810360008301526122a381612267565b9050919050565b7f596f75206172656e277420746865206f776e6572206f722041756374696f6e2060008201527f6861736e277420656e6465642079657400000000000000000000000000000000602082015250565b6000612306603083611b99565b9150612311826122aa565b604082019050919050565b60006020820190508181036000830152612335816122f9565b9050919050565b7f4e487b7100000000000000000000000000000000000000000000000000000000600052601160045260246000fd5b600061237682611c40565b91507fffffffffffffffffffffffffffffffffffffffffffffffffffffffffffffffff82036123a8576123a761233c565b5b600182019050919050565b600081519050919050565b600082825260208201905092915050565b60006123da826123b3565b6123e481856123be565b93506123f4818560208601611baa565b6123fd81611bd4565b840191505092915050565b600060808201905061241d6000830187611cd5565b61242a6020830186611cd5565b6124376040830185611dfa565b818103606083015261244981846123cf565b905095945050505050565b60008151905061246381611aff565b92915050565b60006020828403121561247f5761247e611ac9565b5b600061248d84828501612454565b91505092915050565b7f4e487b7100000000000000000000000000000000000000000000000000000000600052601260045260246000fd5b60006040820190506124da6000830185611cd5565b6124e76020830184611dfa565b939250505056fea2646970667358221220757249498047903e3e72e0b33183acf20c48abba4dfb26176a42d8b169fa6c5064736f6c63430008180033",
  "linkReferences": {},
  "deployedLinkReferences": {}
}